{
  "contractName": "firstContract",
  "abi": [
    {
      "anonymous": false,
      "inputs": [
        {
          "indexed": false,
          "internalType": "address",
          "name": "",
          "type": "address"
        },
        {
          "indexed": false,
          "internalType": "string",
          "name": "",
          "type": "string"
        }
      ],
      "name": "onUserJoined",
      "type": "event"
    },
    {
      "inputs": [
        {
          "internalType": "string",
          "name": "nickRecibed",
          "type": "string"
        },
        {
          "internalType": "string",
          "name": "crewRecibed",
          "type": "string"
        }
      ],
      "name": "join",
      "outputs": [],
      "stateMutability": "nonpayable",
      "type": "function"
    },
    {
      "inputs": [
        {
          "internalType": "address",
          "name": "addr",
          "type": "address"
        }
      ],
      "name": "getUser",
      "outputs": [
        {
          "internalType": "string",
          "name": "",
          "type": "string"
        },
        {
          "internalType": "string",
          "name": "",
          "type": "string"
        }
      ],
      "stateMutability": "view",
      "type": "function"
    },
    {
      "inputs": [],
      "name": "totalUsers",
      "outputs": [
        {
          "internalType": "uint256",
          "name": "",
          "type": "uint256"
        }
      ],
      "stateMutability": "view",
      "type": "function"
    }
  ],
  "bytecode": "0x608060405234801561001057600080fd5b506109ca806100206000396000f3fe608060405234801561001057600080fd5b50600436106100415760003560e01c806329803b21146100465780636f77926b14610198578063bff1f9e1146102c1575b600080fd5b6101966004803603604081101561005c57600080fd5b810190808035906020019064010000000081111561007957600080fd5b82018360208201111561008b57600080fd5b803590602001918460018302840111640100000000831117156100ad57600080fd5b91908080601f016020809104026020016040519081016040528093929190818152602001838380828437600081840152601f19601f8201169050808301925050505050505091929192908035906020019064010000000081111561011057600080fd5b82018360208201111561012257600080fd5b8035906020019184600183028401116401000000008311171561014457600080fd5b91908080601f016020809104026020016040519081016040528093929190818152602001838380828437600081840152601f19601f8201169050808301925050505050505091929192905050506102df565b005b6101da600480360360208110156101ae57600080fd5b81019080803573ffffffffffffffffffffffffffffffffffffffff169060200190929190505050610643565b604051808060200180602001838103835285818151815260200191508051906020019080838360005b8381101561021e578082015181840152602081019050610203565b50505050905090810190601f16801561024b5780820380516001836020036101000a031916815260200191505b50838103825284818151815260200191508051906020019080838360005b83811015610284578082015181840152602081019050610269565b50505050905090810190601f1680156102b15780820380516001836020036101000a031916815260200191505b5094505050505060405180910390f35b6102c9610872565b6040518082815260200191505060405180910390f35b6102e83361087f565b1561035b576040517f08c379a00000000000000000000000000000000000000000000000000000000081526004018080602001828103825260148152602001807f596120746520686173207265676973747261646f00000000000000000000000081525060200191505060405180910390fd5b60008060003373ffffffffffffffffffffffffffffffffffffffff1673ffffffffffffffffffffffffffffffffffffffff1681526020019081526020016000209050828160000190805190602001906103b59291906108d5565b50818160010190805190602001906103ce9291906108d5565b5060018060003373ffffffffffffffffffffffffffffffffffffffff1673ffffffffffffffffffffffffffffffffffffffff16815260200190815260200160002060006101000a81548160ff0219169083151502179055506002339080600181540180825580915050600190039060005260206000200160009091909190916101000a81548173ffffffffffffffffffffffffffffffffffffffff021916908373ffffffffffffffffffffffffffffffffffffffff1602179055507fcb377c658a30311994ed849c5202a7876366b3353f8a9e009226ccd6411935b33384846040516020018083805190602001908083835b602083106104e357805182526020820191506020810190506020830392506104c0565b6001836020036101000a038019825116818451168082178552505050505050905001807f200000000000000000000000000000000000000000000000000000000000000081525060010182805190602001908083835b6020831061055c5780518252602082019150602081019050602083039250610539565b6001836020036101000a03801982511681845116808217855250505050505090500192505050604051602081830303815290604052604051808373ffffffffffffffffffffffffffffffffffffffff1673ffffffffffffffffffffffffffffffffffffffff16815260200180602001828103825283818151815260200191508051906020019080838360005b838110156106035780820151818401526020810190506105e8565b50505050905090810190601f1680156106305780820380516001836020036101000a031916815260200191505b50935050505060405180910390a1505050565b60608061064f8361087f565b6106c1576040517f08c379a00000000000000000000000000000000000000000000000000000000081526004018080602001828103825260158152602001807f456c207573756172696f206e6f206578697374652e000000000000000000000081525060200191505060405180910390fd5b6106c9610955565b6000808573ffffffffffffffffffffffffffffffffffffffff1673ffffffffffffffffffffffffffffffffffffffff168152602001908152602001600020604051806040016040529081600082018054600181600116156101000203166002900480601f0160208091040260200160405190810160405280929190818152602001828054600181600116156101000203166002900480156107ab5780601f10610780576101008083540402835291602001916107ab565b820191906000526020600020905b81548152906001019060200180831161078e57829003601f168201915b50505050508152602001600182018054600181600116156101000203166002900480601f01602080910402602001604051908101604052809291908181526020018280546001816001161561010002031660029004801561084d5780601f106108225761010080835404028352916020019161084d565b820191906000526020600020905b81548152906001019060200180831161083057829003601f168201915b5050505050815250509050806000015181602001518191508090509250925050915091565b6000600280549050905090565b6000600160008373ffffffffffffffffffffffffffffffffffffffff1673ffffffffffffffffffffffffffffffffffffffff16815260200190815260200160002060009054906101000a900460ff169050919050565b828054600181600116156101000203166002900490600052602060002090601f016020900481019282601f1061091657805160ff1916838001178555610944565b82800160010185558215610944579182015b82811115610943578251825591602001919060010190610928565b5b509050610951919061096f565b5090565b604051806040016040528060608152602001606081525090565b61099191905b8082111561098d576000816000905550600101610975565b5090565b9056fea2646970667358221220eec4c8f8017abd8e485f654417b16592fe4ee1aaeace507089795c3c899c644b64736f6c63430006020033",
  "source": "pragma solidity >=0.6.2;\r\n\r\ncontract firstContract {\r\n    struct User {\r\n        string nick;\r\n        string crew;\r\n    }\r\n\r\n    mapping(address => User) private users;\r\n    mapping(address => bool) private joinedUsers;\r\n    address[] total;\r\n\r\n    event onUserJoined(address, string);\r\n\r\n    function join(string memory nickRecibed, string memory crewRecibed) public {\r\n        require(!userJoined(msg.sender), 'Ya te has registrado');\r\n        User storage user = users[msg.sender];\r\n        user.nick = nickRecibed;\r\n        user.crew = crewRecibed;\r\n        joinedUsers[msg.sender] = true;\r\n        total.push(msg.sender);\r\n        emit onUserJoined(msg.sender, string(abi.encodePacked(nickRecibed,\" \",crewRecibed)));\r\n    }\r\n\r\n    function getUser(address addr) public view returns (string memory , string memory ) {\r\n        require(userJoined(addr), 'El usuario no existe.');\r\n        User memory user = users[addr];\r\n        return (user.nick, user.crew);\r\n    }\r\n\r\n    function userJoined(address addr) private view returns (bool) {\r\n        return joinedUsers[addr];\r\n    }\r\n\r\n    function totalUsers() public view returns (uint) {\r\n        return total.length;\r\n    }\r\n}\r\n",
  "sourcePath": "C:\\Users\\w\\Desktop\\smart Contract ETH\\compila\\contracts\\firstContract.sol",
  "compiler": {
    "name": "solc",
    "version": "0.6.2+commit.bacdbe57.Emscripten.clang"
  },
  "schemaVersion": "3.0.23",
  "updatedAt": "2020-02-20T17:43:23.724Z",
  "devdoc": {
    "methods": {}
  },
  "userdoc": {
    "methods": {}
  }
}